:020000040800F2
:100000006806002089010008CF050008C705000820
:10001000CB050008A10400088D0A000800000000BC
:100020000000000000000000000000003D09000882
:10003000A50400080000000001090008290A0008C2
:10004000A3010008A3010008A3010008A301000800
:10005000A3010008A3010008A3010008A3010008F0
:10006000A3010008A3010008A3010008A3010008E0
:10007000A3010008A3010008A3010008A3010008D0
:10008000A3010008A3010008A3010008A3010008C0
:10009000A3010008A3010008A3010008A3010008B0
:1000A000A3010008A3010008A3010008A3010008A0
:1000B000A3010008A3010008A3010008A301000890
:1000C000A3010008A3010008A3010008A301000880
:1000D000A3010008A3010008A3010008A301000870
:1000E000A3010008A3010008A301000800F002F822
:1000F00000F03AF80AA090E8000C82448344AAF188
:100100000107DA4501D100F02FF8AFF2090EBAE885
:100110000F0013F0010F18BFFB1A43F0010318473B
:1001200080160000A0160000103A24BF78C878C1DD
:10013000FAD8520724BF30C830C144BF04680C60ED
:10014000704700000023002400250026103A28BF35
:1001500078C1FBD8520728BF30C148BF0B60704739
:100160001FB51FBD10B510BD00F031F81146FFF7E7
:10017000F7FF00F093FC00F04FF803B4FFF7F2FF35
:1001800003BC00F053F800000948804709480047C5
:10019000FEE7FEE7FEE7FEE7FEE7FEE7FEE7FEE737
:1001A000FEE7FEE704480549054A064B7047000094
:1001B0002D0A0008ED0000086800002068060020F5
:1001C000680200206802002070477047704775463B
:1001D00000F028F8AE4605006946534620F00700B7
:1001E000854618B020B5FFF7DDFFBDE820404FF091
:1001F00000064FF000074FF000084FF0000B21F011
:100200000701AC46ACE8C009ACE8C009ACE8C009DD
:10021000ACE8C0098D4670470446AFF30080204625
:10022000FFF7ABFF00487047080000200149182085
:10023000ABBEFEE726000200704721B1826842F0A3
:100240000102826003E0826822F00102826070474E
:10025000014600208A6802F004020AB1012000E091
:10026000002070470146C86C80B2704702460020EB
:1002700013680B400BB1012000E0002070470146DD
:1002800000208A6802F008020AB1012000E0002084
:100290007047000030B502460020002350680F4C24
:1002A00020400D790C6844EA052420435060906892
:1002B0000B4C2040D1E902542C434D7944EA4504CB
:1002C00020439060D06A20F470000C7C641EE4B27D
:1002D000234340EA0350D06230BD0000FFFEF0FF30
:1002E000FDF7F1FFF0B504460D4600200021092D71
:1002F00011DDE068A5F10A0606EB4607072606FAB7
:1003000007F18843A5F10A0606EB460603FA06F153
:100310000843E0600CE0206905EB4507072606FA74
:1003200007F1884305EB450603FA06F1084320610F
:10033000072A0FDA606B561E06EB86071F2606FAA1
:1003400007F18843561E06EB860605FA06F10843B8
:10035000606322E00D2A0FDA206BD61F06EB8607BA
:100360001F2606FA07F18843D61F06EB860605FA14
:1003700006F10843206310E0E06AA2F10D0606EBE7
:1003800086071F2606FA07F18843A2F10D0606EB41
:10039000860605FA06F10843E062F0BD816841F087
:1003A00008018160704721B1826842F4A002826036
:1003B00003E0826822F4A00282607047816841F005
:1003C000040181607047000008B50121042000F09D
:1003D000A5FA0120ADF8000000208DF803000320ED
:1003E0008DF802006946024800F05DF808BD000083
:1003F0000008014010B500BF10210448FFF736FF88
:100400000028F9D00148FFF72DFF10BD002401405E
:1004100010B5FFF7D9FF00F001F810BD00B585B0A9
:100420000121480200F07AFA4FF4004000F06AFA25
:100430000523012200211948FFF754FF00200090F6
:1004400003904FF46020029001208DF805000020F9
:100450008DF8040001208DF8100069460F48FFF761
:1004600019FF01210D48FFF7E8FE0C48FFF796FF42
:1004700000BF0A48FFF703FF0128FAD00748FFF73B
:100480009DFF00BF0548FFF7E3FE0128FAD00121D8
:100490000248FFF788FF05B000BD000000240140BE
:1004A00000BFFEE770472DE9F04102460025002617
:1004B000002000230024002791F803C00CF00F0552
:1004C00091F803C00CF0100CBCF1000F03D091F8B0
:1004D00002C04CEA050591F800C0BCF1000F31D014
:1004E000146800202BE04FF0010C0CFA00F3B1F877
:1004F00000C00CEA03069E4220D183004FF00F0C8F
:100500000CFA03F7BC4305FA03FC4CEA040491F827
:1005100003C0BCF1280F06D14FF0010C0CFA00FC0F
:10052000C2F814C00AE091F803C0BCF1480F05D12D
:100530004FF0010C0CFA00FCC2F810C0401C082857
:10054000D1D31460B1F800C0BCF1FF0F34DD5468A2
:1005500000202EE000F1080C4FF0010808FA0CF31F
:10056000B1F800C00CEA03069E4221D183004FF08F
:100570000F0C0CFA03F7BC4305FA03FC4CEA040425
:1005800091F803C0BCF1280F05D100F1080C08FA5E
:100590000CF8C2F8148091F803C0BCF1480F07D1E1
:1005A00000F1080C4FF0010808FA0CF8C2F81080AE
:1005B000401C0828CED35460BDE8F0810AB1016127
:1005C00000E04161704700BFFEE700BFFEE77047F3
:1005D00070B500240EE00021204600F0F0F8002560
:1005E00004E0002000F07CF9681CC5B2802DF8DB27
:1005F000601CC4B2082CEEDB70BD000008B5012100
:10060000082000F08BF94FF48070ADF80000142042
:100610008DF8030003208DF8020069460A48FFF7B1
:1006200042FF4FF40070ADF8000069460648FFF73E
:100630003AFF012211020448FFF7C0FF01225102D4
:100640000148FFF7BBFF08BD000C014070B505462F
:10065000002415E08020204100EA05024FF40071DB
:100660000E48FFF7ABFF012211020C48FFF7A6FF6F
:1006700000224FF480710948FFF7A0FF601CC4B24C
:10068000082CE7DB012211020448FFF797FF002244
:100690004FF480710148FFF791FF70BD000C0140DD
:1006A00010B5012251020A48FFF788FF012211020A
:1006B0000748FFF783FF00224FF400710448FFF75B
:1006C0007DFF00224FF480710148FFF777FF10BDD6
:1006D000000C014010B500224FF400710648FFF7EE
:1006E0006DFF012211020448FFF768FF0122510249
:1006F0000148FFF763FF10BD000C014070B50024F6
:1007000006E0002500E06D1CB5F57A7FFBD3641C84
:10071000B4F57A7FF5D3FFF771FFAE2000F0D0F883
:10072000D52000F0CDF8802000F0CAF8A82000F015
:10073000C7F83F2000F0C4F8D32000F0C1F8002033
:1007400000F0BEF8402000F0BBF8A12000F0B8F89F
:10075000C82000F0B5F8DA2000F0B2F8122000F05E
:10076000AFF8812000F0ACF8CF2000F0A9F8D92034
:1007700000F0A6F8F12000F0A3F8DB2000F0A0F8CC
:10078000302000F09DF8A42000F09AF8A62000F098
:1007900097F88D2000F094F8142000F091F8AF2025
:1007A00000F08EF8FFF714FF70BD10B5024601206F
:1007B00000E050430B00A1F10101FAD110BD70B56A
:1007C00005460C4645F0B00000F07AF8102141EAE9
:1007D000141000F075F804F00F0000F071F870BD0F
:1007E0002DE9F04105460E461746721ED206110E3F
:1007F0006A1E5206100EFFF7E2FF002409E0A7F17F
:100800002001134A02EB0111085D00F069F8601C39
:10081000C4B2082CF3DB721ED206110E6A1E01232D
:1008200003EB4202D0B2FFF7CAFF00240BE0A7F1AE
:100830002001074A02EB011204F10801505C00F0AC
:100840004FF8601CC4B2082CF1DBBDE8F081000059
:10085000B01100082DE9F04780460E4617461D46A8
:10086000002415E0281B411E0A20FFF79EFFB7FB5E
:10087000F0F00A21B0FBF1F201FB120000F13009A7
:100880003019C1B24A464046FFF7AAFF601CC4B205
:10089000AC42E7DBBDE8F0872DE9F04107460E46A4
:1008A0001546002407E02A5D3019C1B23846FFF72B
:1008B00097FF601CC4B2285D0028F4D1BDE8F08128
:1008C00010B50446FFF7ECFE7820FFF7BFFE0020CE
:1008D000FFF7BCFE2046FFF7B9FEFFF7FBFE10BD99
:1008E00010B50446FFF7DCFE7820FFF7AFFE40208E
:1008F000FFF7ACFE2046FFF7A9FEFFF7EBFE10BDA9
:100900007047000001460020034A506820F4404030
:1009100008435060704700000010024029B1064AA9
:1009200092690243044B9A6104E0034A926982434C
:10093000014B9A617047000000100240704710B5EB
:1009400000F002F810BD00000CB5002001900090EE
:100950003348006840F480303149086000BF3048B7
:10096000006800F4003000900198401C019000984D
:1009700018B90198B0F5A06FF1D12948006800F4CA
:10098000003010B10120009001E00020009000989C
:10099000012843D12348006840F010002149086035
:1009A0000846006820F0030008600846006840F030
:1009B000020008601A4840681949486008464068C3
:1009C00048600846406840F48060486008464068D7
:1009D00020F47C1048600846406840F4E810486005
:1009E0000846006840F08070086000BF0C4800684E
:1009F00000F000700028F9D00948406820F003009A
:100A0000074948600846406840F00200486000BF5F
:100A10000348406800F00C000828F9D10CBD000024
:100A200000100240002002407047000010B513483B
:100A3000006840F00100114908600846406810490C
:100A400008400E494860084600680E4908400B49B6
:100A500008600846006820F4802008600846406866
:100A600020F4FE0048604FF41F008860FFF767FF26
:100A70004FF000600449086010BD00000010024003
:100A80000000FFF8FFFFF6FE08ED00E000BFFEE704
:100A900000BF0100A0F10100FBD17047FFF72EFE5F
:100AA000FFF7B6FC27A201210846FFF7F5FE28A2B2
:100AB00001210220FFF7F0FE42E0FFF79BFC2849EE
:100AC00008800846008800F093FA8146254900F026
:100AD000ADF9044600F07EF907464FF06632224B2E
:100AE00000F07AF8054600F045F820490860042334
:100AF0001B48028809210120FFF7ACFE1B48006853
:100B000000F056FA04460123224609210220FFF78D
:100B1000A1FE17491548006800F07EFA054600F06E
:100B200047FA80B2642190FBF1F201FB1204022328
:100B300022460B211846FFF78DFE6420FFF7A8FF21
:100B4000BBE70000414456616C75653A0000000047
:100B5000566F6C746167653A302E30305600000075
:100B60000000002000F07F4566660A400400002077
:100B70000000C84221F00042A2F16052B2F5801F8D
:100B800001F0004328BFD2F17F6C0BD95FEA001C53
:100B900043EAC20242EB507018BF704728BF20F0F2
:100BA00001007047B2F5801FBCBF184670474FEA7E
:100BB000410C1CF5001F02D2084600F0F4BA70B5D3
:100BC00000F0B4F800000089FFF7F6BF4FF00040D6
:100BD000A0F5800070470000DFF848C170B51CEA3E
:100BE000111E1EBF1CEA13159EEA0C0F95EA0C0F8E
:100BF00000F06F8081EA030423EA4C134EEAD47EAE
:100C000021EA4C1141F4801143F48013AE44A1FB5E
:100C1000024CA0FB0365AEF17F7E361955EB0C0547
:100C2000A1FB034C4CF10003A0FB021C16EB0C06CD
:100C3000654153F10003094218BF46F0010613F461
:100C4000007F0BD14FEA03314FEA0530340341EA0C
:100C5000155140EA16506FF003020AE04FEAC32133
:100C60004FEAC520F40241EA555140EA56506FF070
:100C7000020202EB2E4201EB025585EACE710AD048
:100C80005FEA440C18BF24F0004450F1000041F129
:100C9000000120EAD47040F2FE7C624500D270BDB3
:100CA000A84214BF4FF080444FF04044002E08BFCC
:100CB0000024BEF1806FA8BFA1F1C041BDE8704023
:100CC00080F282804FF0000001F1C04101F000414C
:100CD00070479EEA0C0F0CEA131518BF95EA0C0F2B
:100CE00006D04FF0000081EA030E0EF0004170BD07
:100CF00000F01CF88900013E00F007B800F009B8C8
:100D00004FEA430C5FEA5C5C08D081EA030100F023
:100D10005BB84FEA410C5FEA5C5CF6D14FF0000033
:100D2000014970470000FF070000F87F0EF1020E36
:100D30002EF0030E5EF8046B364205D4012A43EB15
:100D4000030515F5001F12D8012841EB010C1CF515
:100D5000001F0CD80ED14FEAD17C15F5001F0CEB0B
:100D60004C0C0CF1020C08BF4CEBD37C04E04FF0B0
:100D7000080C01E04FEAD37C0CEB4C0526FA05F693
:100D800006F00706B6F1040C06D20EEB860CBDE8A1
:100D900070404CF0010C6047DFE80CF0090B0202D8
:100DA0004FF000414FF00000A1F5002170BD194641
:100DB0001046012851EB010418BFD4F5001484BF7C
:100DC000002001F0004170BD0808A0F500114FEAB5
:100DD0003101704743004FEAD30C4FEA3C0C4340CB
:100DE0001FBF40070CF1605113F0FE4F70471CF01D
:100DF000006F03D100200CF0004170470CF000435D
:100E000043EA507010B540EACC0000F086F900BF0C
:100E1000000000924FEA0001FFF7D6BF4FF00041FB
:100E20004FF00000A1F50021704700004FF47F0C47
:100E30001CEAD0121EBF1CEAD11392EA0C0F93EAEF
:100E40000C0F00F0858090EA010F48BF42F48072D9
:100E500040F4000C41F400002CF07F4120F07F4072
:100E600000B58142A2EB03020FF2081CACEB504E1E
:100E7000C0F100009EF800E04FEA4E0E00FB0EFCB1
:100E800038BF49004FEA2C1C02F5FA020CFB0EF3A6
:100E90004FEACE1E4FEA112C4FEAC1210EEB635EE2
:100EA00042EB22420EFB0CFC4FEA1C5300FB0311E9
:100EB0004FEA112C4FEA01310EFB0CFC4FEADC4CDF
:100EC00000FB0C11C14228BF09184CEB03335DF83D
:100ED00004EB10EB410143EBC250B2F57C0F38BF7D
:100EE000704729D512F0F00F1CBF00F1C04000F090
:100EF00000407047008182838485868788898B8C37
:100F00008D8E8F919293959697999A9C9D9FA0A272
:100F1000A3A5A7A8AAACAEB0B2B3B5B7B9BCBEC0C2
:100F2000C2C5C7C9CCCED1D4D7D9DCDFE2E6E9EC63
:100F3000F0F3F7FAFE0000004FEA400C0CF1807C61
:100F4000BCF17E4F28BF7047B0F1C04000F02BB914
:100F500090EA010F0CEAD11348BF42F48072624557
:100F600038BF634507D213F47F0F16D080EA010023
:100F700000F00040704710B500F0CFF8097EFC3E4D
:100F800000F005B880EA010000F00040704780EAF8
:100F9000010000F0004000F006B912F47F0F04BF1A
:100FA0000248704780EA010000F0FDB80000C07FF1
:100FB000C10DD1F19E0206DB4FEA002343F000434E
:100FC00023FA02F07047004207D54FEA4001B1F121
:100FD000FE4F02D24FF00000704710B500F09DF8B0
:100FE00049922480002070476FEA2000704700007B
:100FF000B0FA80F310FA03F2C3F19D030AD0D905C9
:1010000001EB1220530638BF704700F1010008BF02
:1010100020F00100704700004FF47F0C1CEAD01252
:101020001EBF1CEAD11392EA0C0F93EA0C0F00F0DA
:10103000478090EA010F48BF42F480724FF0004CA5
:101040004CEA00204CEA012102EB0302A0FB011351
:10105000A2F50002002918BF43F001035B0028BF7E
:101060004FEA330342EB22425FEA132C4CEBC250AF
:101070002EBFBCEB436FB2F57C0F70474FEA036C99
:10108000BCF1004F08BF20F00100B2F57C0F38BF63
:1010900070470BD582F0FF0212F5803FC8BF704742
:1010A00000F1C040D8BF00F00040704700F5000CD0
:1010B0005FEA4C0C48BF7047B0F1C04000F073B815
:1010C00090EA010F0CEAD11348BF42F480726245E6
:1010D00038BF634504D280EA010000F00040704749
:1010E00010B500F01AF800BF8900013E00F007B803
:1010F00000F009B85FEA410C5FEA1C6C08D080EA96
:10110000010000F050B85FEA400C5FEA1C6CF6D1B9
:101110004FF00040A0F5800070470EF1020E2EF057
:10112000030E5EF8044B244204D44FEA4102B2F1AC
:101130007F4F11D84FEA4003B3F17F4F0CD80ED147
:101140004FEAD07CB2F17F4F0CEB4C0C0CF1020C4F
:1011500008BF4CEBD17C04E04FF0080C01E04FEAF3
:10116000D17C0CEB4C0324FA03F404F00704B4F133
:10117000040C06D20EEB840CBDE810404CF0010CC0
:101180006047DFE80CF0070802024FF00040A0F5CE
:10119000800010BD0846420018BFD2F1807288BF9F
:1011A00000F0004010BDFF2141EAD050C00570475B
:1011B000000000000000000000000000000000002F
:1011C000000000F8000000000000003330000000C4
:1011D00000100C06100C06000000000000000000CB
:1011E00040C07840C0784000043F04043F0404003D
:1011F000007088FC08300000001820FF211E00004D
:10120000F008F000E018000000211C031E211E0061
:1012100000F00888700000001E21232419272110E7
:1012200010160E000000000000000000000000008A
:10123000000000E018040200000000071820400031
:1012400000020418E0000000004020180700000021
:10125000404080F0804040000202010F0102020085
:10126000000000F0000000000101011F0101010069
:10127000000000000000000080B0700000000000CE
:101280000000000000000000000101010101010157
:1012900000000000000000000030300000000000EE
:1012A00000000000806018040060180601000000C3
:1012B00000E010080810E000000F102020100F00C0
:1012C000001010F8000000000020203F2020000047
:1012D000007008080888700000302824222130009F
:1012E00000300888884830000018202020110E00A7
:1012F0000000C02010F8000000070424243F240050
:1013000000F80888880808000019212020110E0024
:1013100000E0108888180000000F112020110E0036
:1013200000380808C83808000000003F000000002E
:101330000070880808887000001C222121221C00EF
:1013400000E010080810E0000000312222110F0018
:10135000000000C0C00000000000003030000000AD
:10136000000000800000000000008060000000001D
:101370000000804020100800000102040810200036
:101380004040404040404000040404040404040081
:101390000008102040800000002010080402010016
:1013A000007048080808F000000000303601000016
:1013B000C030C828E810E0000718272423140B00C9
:1013C0000000C038E0000000203C23020227382043
:1013D00008F8888888700000203F202020110E0027
:1013E000C03008080808380007182020201008001E
:1013F00008F808080810E000203F202020100F0007
:1014000008F88888E8081000203F202023201800D2
:1014100008F88888E8081000203F2000030000003A
:10142000C03008080838000007182020221E0200DB
:1014300008F808000008F808203F210101213F209A
:10144000000808F8080800000020203F20200000C5
:1014500000000808F8080800C08080807F000000B5
:1014600008F888C028180800203F200126382000EE
:1014700008F8080000000000203F20202020300055
:1014800008F8F800F8F80800203F003F003F20006F
:1014900008F830C00008F808203F200007183F0077
:1014A000E01008080810E0000F10202020100F00A6
:1014B00008F808080808F000203F21010101000099
:1014C000E01008080810E0000F18242438504F00DE
:1014D00008F8888888887000203F2000030C30209E
:1014E00000708808080838000038202121221C00DC
:1014F000180808F8080818000000203F2000000025
:1015000008F808000008F808001F202020201F000D
:101510000878880000C83808000007380E0100006D
:10152000F80800F80008F800033C0700073C030037
:10153000081868808068180820302C03032C30209D
:101540000838C800C83808000000203F200000000C
:1015500010080808C8380800203826212020180064
:10156000000000FE020202000000007F4040400038
:10157000000C30C000000000000000010638C00070
:1015800000020202FE000000004040407F00000018
:10159000000004020202040000000000000000003D
:1015A000000000000000000080808080808080803B
:1015B0000002020400000000000000000000000023
:1015C00000008080808000000019242222223F2019
:1015D00008F8008080000000003F112020110E005C
:1015E0000000008080800000000E112020201100EB
:1015F000000000808088F800000E112020103F209D
:101600000000808080800000001F22222222130020
:10161000008080F0888888180020203F202000006B
:101620000000808080808000006B94949493600020
:1016300008F8008080800000203F210000203F202B
:1016400000809898000000000020203F202000002B
:10165000000000809898000000C08080807F00001B
:1016600008F8000080808000203F24022D302000F8
:10167000000808F8000000000020203F20200000A3
:101680008080808080808000203F20003F20003FBD
:101690008080008080800000203F210000203F20CB
:1016A0000000808080800000001F202020201F007C
:1016B000808000808000000080FFA12020110E00AB
:1016C0000000008080808000000E112020A0FF809C
:1016D000808080008080800020203F212000010049
:1016E000000080808080800000332424242419009E
:1016F000008080E0808000000000001F20200000AB
:101700008080000000808000001F202020103F20EB
:10171000808080000080808000010E30080601007B
:1017200080800080008080800F300C030C300F0020
:1017300000808000808080000020312E0E3120004B
:10174000808080000080808080818E70180601007B
:1017500000808080808080000021302C2221300099
:1017600000000000807C020200000000003F4040BA
:1017700000000000FF00000000000000FF0000006B
:101780000002027C800000000040403F000000009A
:101790000006010102020404000000000000000035
:1017A000C017000800000020080000002801000801
:1017B000C817000808000020600600004401000867
:0817C000000000000000000021
:04000005080000ED02
:00000001FF
