:020000040800F2
:10000000100400200101000809030008FF01000896
:100010000102000849010008C507000800000000AF
:10002000000000000000000000000000BB06000807
:100030004B010008000000003706000871070008A7
:100040001B0100081B0100081B0100081B01000820
:100050001B0100081B0100081B0100081B01000810
:100060001B0100081B0100081B0100081B01000800
:100070001B0100081B0100081B0100081B010008F0
:100080001B0100081B0100081B0100081B010008E0
:100090001B0100081B0100081B0100081B010008D0
:1000A0001B0100081B0100081B0100081B010008C0
:1000B0001B0100081B0100081B0100081B010008B0
:1000C0001B0100081B0100081B0100081B010008A0
:1000D0001B0100081B0100081B0100081B01000890
:1000E0001B0100081B0100081B010008DFF80CD0F1
:1000F00000F018F8004800478908000810040020A4
:100100000648804706480047FEE7FEE7FEE7FEE7B1
:10011000FEE7FEE7FEE7FEE7FEE7FEE775070008FD
:10012000ED000008064C074D06E0E06840F00103D2
:1001300094E8070098471034AC42F6D3FFF7DAFF93
:100140004C0F00086C0F0008FEE770472DE9F041E6
:100150000022CC7804F00F03E40601D58C78234309
:100160000C784FF00F0714F0FF0F4FF0010C1CD06C
:1001700005680CFA02F40E882640A64211D19600BA
:1001800007FA06F825EA080503FA06F848EA05051D
:10019000CE78282E02D0482E02D002E0446100E042
:1001A0000461521C082AE4D305600A88FF2A1ED97C
:1001B0004568002202F108060CFA06F40E88264073
:1001C000A64210D1960007FA06F825EA080503FAB8
:1001D00006F848EA0505CE78282E00D14461CE788D
:1001E000482E00D10461521C082AE3D34560BDE8C3
:1001F000F081002A01D00161704741617047FEE73C
:10020000FEE7000030B587B00121042000F014FAA9
:100210000121080300F010FA1020ADF818008DF845
:100220001B0003208DF81A00204C06A92046FFF77A
:100230008DFFA020ADF8180018208DF81B0006A92E
:100240002046FFF783FF4020ADF8180048208DF8C6
:100250001B0006A92046FFF779FF4FF48270ADF826
:1002600006000021ADF80410ADF80810ADF812102A
:100270003022ADF81020ADF80A10ADF80C10601562
:10028000ADF80E000720ADF81400094D01A928466D
:1002900000F0F7F90121284600F0DCF901221021D5
:1002A0002046FFF7A6FF07B030BD00000008014060
:1002B00000300140002210210148FFF79ABF0000E2
:1002C00000080140012210210148FFF792BF000001
:1002D0000008014070B505460A4C0221204600F096
:1002E000C5F90128F9D12946204600F0C8F90121B5
:1002F000204600F0BBF90128F9D1204600F0BDF9F5
:10030000C0B270BD00300140704770B500250021BB
:10031000284600F0F5F80024002000F07BF9641C6A
:10032000E4B2802CF8D36D1CEDB2082DEFD370BD74
:10033000F8B50121082000F07FF94FF48074ADF882
:10034000004014208DF8030003208DF802000B4EAE
:1003500069463046FFF7FAFE6500ADF80050694681
:100360003046FFF7F3FE012221463046FFF741FFFA
:10037000012229463046FFF73CFFF8BD000C014042
:100380002DE9F04707460024134D4FF080094FF444
:100390000078AE1529FA04F23A4041462846FFF7A4
:1003A00028FF012231462846FFF723FF002231466D
:1003B0002846FFF71EFF641CE4B2082CEAD3012292
:1003C00031462846FFF715FF31462846BDE8F0477D
:1003D0000022FFF70EBF0000000C014070B50122A3
:1003E0000B4D540221462846FFF703FF0122160257
:1003F00031462846FFF7FDFE002221462846FFF73A
:10040000F8FE31462846BDE870400022FFF7F1BEF5
:10041000000C014070B50A4D4FF4007400222146D3
:100420002846FFF7E6FE012211022846FFF7E1FE0B
:1004300021462846BDE870400122FFF7DABE0000E1
:10044000000C014010B500214FF47A720020401CCE
:100450009042FCD3491C9142F8D3FFF769FFAE20CC
:1004600000F0C7F8D52000F0C4F8802000F0C1F8F3
:10047000A82000F0BEF83F2000F0BBF8D32000F029
:10048000B8F8002000F0B5F8402000F0B2F8A12044
:1004900000F0AFF8C82000F0ACF8DA2000F0A9F8BE
:1004A000122000F0A6F8812000F0A3F8CF2000F081
:1004B000A0F8D92000F09DF8F12000F09AF8DB2098
:1004C00000F097F8302000F094F8A42000F091F8A4
:1004D000A62000F08EF88D2000F08BF8142000F09C
:1004E00088F8AF2000F085F8BDE81040FFF70DBF99
:1004F0000346012000E05843491E4A1CFBD17047C7
:1005000010B50C4640F0B00000F073F8102040EA3F
:10051000141000F06EF804F00F00BDE8104000F079
:1005200068B800002DE9F0411546491E461ECF006F
:100530007006F9B2000EFFF7E3FF00240E48203DDD
:1005400000EB0515285D00F065F8641CE4B2082C8A
:10055000F8D3012000EB4600F9B2C0B2FFF7D0FF9C
:1005600000242819007A00F055F8641CE4B2082C25
:10057000F7D3BDE8F08100005C0900082DE9F047E1
:1005800081460E4690461F4600241BE0391B491E3B
:100590001020FFF7ADFFB8FBF0F000F00F050A2DBB
:1005A00007D230193035C1B2EAB24846FFF7BAFF78
:1005B00006E030193735C1B2EAB24846FFF7B2FF5C
:1005C000641CE4B2BC42E1D3BDE8F0872DE9F04100
:1005D00007460D461646002406E02819C1B23846E3
:1005E000FFF7A0FF641CE4B2325D002AF5D1BDE83C
:1005F000F08110B50446FFF7F1FE7820FFF7C0FE4A
:100600000020FFF7BDFE2046FFF7BAFEBDE8104010
:10061000FFF700BF10B50446FFF7E0FE7820FFF7B4
:10062000AFFE4020FFF7ACFE2046FFF7A9FEBDE875
:100630001040FFF7EFBE7047054A002903D09169CB
:100640000143916170479169814391617047000056
:1006500000100240002904D0018841F040010180CF
:100660007047018821F04001018070470246002058
:1006700012890A4200D00120704780897047818129
:10068000704730B5028802F441530A884C88CD88FF
:1006900022438C882C4322430C8922434C892243D9
:1006A0008C892243CC8922431A430280828B22F414
:1006B00000628283098A018230BD7047AFF30080F7
:1006C0000CB50022019200922748016841F4803164
:1006D00001604FF4A063016801F4003100910199B9
:1006E000491C0191009911B901999942F3D101680E
:1006F000890302D50121009100E0009200990129AF
:1007000030D11A490A6842F010020A600A6822F0E1
:1007100003020A600A6842F002020A60416841600E
:1007200041684160416841F480614160416821F461
:100730007C114160416841F4E8114160016841F079
:100740008071016001688901FCD5416821F00301D5
:100750004160416841F0020141604168C1F381019B
:100760000229FAD10CBD0000001002400020024016
:100770007047000010B50F48016841F001010160A9
:1007800041680D4A1140416001680C4A1140016006
:10079000016821F480210160416821F4FE0141607B
:1007A0004FF41F018160FFF789FF05494FF000609A
:1007B000086010BD001002400000FFF8FFFFF6FEC9
:1007C00008ED00E0FEE7FFF71DBD70B504460D46DD
:1007D000164600F03BF8FFF76DFD0320FFF77AFDAA
:1007E000C4F30740FFF776FDC4F30720FFF772FD5F
:1007F000E0B2FFF76FFD002404E00320FFF76AFD7D
:100800002855641CB442F8D3BDE87040FFF75ABDC8
:1008100070B505460C46FFF74DFD9F20FFF75AFDCA
:10082000FF20FFF757FD2870FF20FFF753FD4FF61D
:10083000FF7101EA00202080FF20FFF74BFD218897
:1008400008432080BDE87040FFF73CBD10B5FFF7BE
:1008500031FD0520FFF73EFDFF20FFF73BFDC00700
:10086000FAD1BDE81040FFF72DBD02E008C8121F05
:1008700008C1002AFAD170477047002001E001C189
:10088000121F002AFBD17047FFF7DCFDFFF79BFF2B
:1008900001212CA20846FFF799FE2DA2012102207A
:1008A000FFF794FE2BA201210320FFF78FFE2A49B8
:1008B000881EFFF7ADFF284C0223A41E05212278D5
:1008C0000120FFF75BFE042362880C210120FFF763
:1008D00055FE042204F108010020FFF776FF241DD5
:1008E0000223227803211846FFF748FE022362788C
:1008F00006211846FFF742FE0223A2780921184676
:10090000FFF73CFE0223E2780C211846FFF736FE83
:10091000241D0321227802230846FFF72FFE627868
:10092000022306210320FFF729FEA27802230921D2
:100930000320FFF723FEE27802230C210320FFF7B8
:100940001DFEFEE74D49443A2020204449443A0028
:10095000573A0000523A0000020000200000000058
:10096000000000000000000000000000000000F88F
:1009700000000000000000333000000000100C06F2
:10098000100C0600000000000000000040C078408D
:10099000C0784000043F04043F040400007088FC59
:1009A00008300000001820FF211E0000F008F000B1
:1009B000E018000000211C031E211E0000F0088822
:1009C000700000001E2123241927211010160E008C
:1009D000000000000000000000000000000000E037
:1009E000180402000000000718204000000204184C
:1009F000E00000000040201807000000404080F0A8
:100A0000804040000202010F01020200000000F0DD
:100A1000000000000101011F0101010000000000B1
:100A20000000000080B07000000000000000000026
:100A300000000000000101010101010100000000AF
:100A40000000000000303000000000000000000046
:100A500080601804006018060100000000E0100823
:100A60000810E000000F102020100F00001010F8F8
:100A7000000000000020203F202000000070080837
:100A800008887000003028242221300000300888B7
:100A9000884830000018202020110E000000C020DF
:100AA00010F8000000070424243F240000F8088800
:100AB000880808000019212020110E0000E010888D
:100AC00088180000000F112020110E0000380808BF
:100AD000C83808000000003F0000000000708808CF
:100AE00008887000001C222121221C0000E0100850
:100AF0000810E0000000312222110F00000000C0A9
:100B0000C000000000000030300000000000008045
:100B10000000000000008060000000000000804035
:100B2000201008000001020408102000404040404E
:100B300040404000040404040404040000081020A1
:100B400040800000002010080402010000704808E6
:100B50000808F0000000003036010000C030C8284E
:100B6000E810E0000718272423140B000000C03809
:100B7000E0000000203C23020227382008F8888883
:100B800088700000203F202020110E00C03008088F
:100B900008083800071820202010080008F8080866
:100BA0000810E000203F202020100F0008F888885F
:100BB000E8081000203F20202320180008F888882B
:100BC000E8081000203F200003000000C0300808A3
:100BD0000838000007182020221E020008F808002C
:100BE0000008F808203F210101213F20000808F8F3
:100BF000080800000020203F202000000000080816
:100C0000F8080800C08080807F00000008F888C0D5
:100C100028180800203F20012638200008F8080086
:100C200000000000203F20202020300008F8F800BD
:100C3000F8F80800203F003F003F200008F830C0CF
:100C40000008F808203F200007183F00E0100808BF
:100C50000810E0000F10202020100F0008F80808EE
:100C60000808F000203F210101010000E010080801
:100C70000810E0000F18242438504F0008F8888826
:100C800088887000203F2000030C30200070880806
:100C9000080838000038202121221C00180808F814
:100CA000080818000000203F2000000008F8080095
:100CB0000008F808001F202020201F000878880066
:100CC00000C83808000007380E010000F80800F8D6
:100CD0000008F800033C0700073C03000818688080
:100CE0008068180820302C03032C30200838C800F6
:100CF000C83808000000203F200000001008080845
:100D0000C83808002038262120201800000000FEE6
:100D1000020202000000007F40404000000C30C092
:100D200000000000000000010638C00000020202BE
:100D3000FE000000004040407F0000000000040270
:100D4000020204000000000000000000000000009B
:100D5000000000008080808080808080000202048B
:100D60000000000000000000000000000000808083
:100D7000808000000019242222223F2008F80080F1
:100D800080000000003F112020110E0000000080B4
:100D900080800000000E1120202011000000008043
:100DA0008088F800000E112020103F200000808075
:100DB00080800000001F222222221300008080F089
:100DC000888888180020203F2020000000008080B4
:100DD00080808000006B94949493600008F80080F9
:100DE00080800000203F210000203F200080989854
:100DF000000000000020203F2020000000000080B4
:100E00009898000000C08080807F000008F80000F3
:100E100080808000203F24022D302000000808F848
:100E2000000000000020203F202000008080808003
:100E300080808000203F20003F20003F8080008095
:100E400080800000203F210000203F2000008080A3
:100E500080800000001F202020201F008080008054
:100E60008000000080FFA12020110E000000008003
:100E700080808000000E112020A0FF8080808000F4
:100E80008080800020203F21200001000000808021
:100E9000808080000033242424241900008080E016
:100EA000808000000000001F2020000080800000E3
:100EB00000808000001F202020103F2080808000C4
:100EC0000080808000010E300806010080800080D4
:100ED000008080800F300C030C300F0000808000F9
:100EE000808080000020312E0E3120008080800024
:100EF0000080808080818E701806010000808080D4
:100F0000808080000021302C222130000000000071
:100F1000807C020200000000003F40400000000012
:100F2000FF00000000000000FF0000000002027C43
:100F3000800000000040403F00000000000601016A
:100F40000202040400000000000000006C0F000812
:100F5000000000200C0000006A080008780F00085C
:100F60000C000020040400007A08000800000000C3
:080F7000A1B2C3D4000000008F
:04000005080000ED02
:00000001FF
