:020000040800F2
:1000000028040020010100085D0600086F020008B6
:100010005906000849010008690C000800000000AA
:10002000000000000000000000000000190B0008A4
:100030004D01000800000000030A0008050C00083C
:100040001B0100081B0100081B0100081B01000820
:100050001B0100081B0100081B0100081B01000810
:100060001B0100081B0100081B0100081B01000800
:100070001B0100081B0100081B0100081B010008F0
:100080001B0100081B0100081B0100081B010008E0
:100090001B0100081B0100081B0100081B010008D0
:1000A0001B0100081B0100081B0100081B010008C0
:1000B0001B0100081B0100081B0100081B010008B0
:1000C0001B0100081B0100081B0100081B010008A0
:1000D0001B0100081B0100081B0100081B01000890
:1000E0001B0100081B0100081B010008DFF80CD0F1
:1000F00000F018F8004800478D0C00082804002084
:100100000648804706480047FEE7FEE7FEE7FEE7B1
:10011000FEE7FEE7FEE7FEE7FEE7FEE7090C000864
:10012000ED000008064C074D06E0E06840F00103D2
:1001300094E8070098471034AC42F6D3FFF7DAFF93
:100140001C1300083C13000800BFFEE770472DE9B0
:10015000F04102460025002600200023002400274D
:1001600091F803C00CF00F0591F803C00CF0100CCF
:10017000BCF1000F03D091F802C04CEA050591F8DC
:1001800000C0BCF1000F31D0146800202BE04FF00C
:10019000010C0CFA00F3B1F800C00CEA03069E4211
:1001A00020D183004FF00F0C0CFA03F7BC4305FA83
:1001B00003FC4CEA040491F803C0BCF1280F06D1FB
:1001C0004FF0010C0CFA00FCC2F814C00AE091F8E0
:1001D00003C0BCF1480F05D14FF0010C0CFA00FC34
:1001E000C2F810C0401C0828D1D31460B1F800C078
:1001F000BCF1FF0F34DD546800202EE000F1080C44
:100200004FF0010808FA0CF3B1F800C00CEA03063D
:100210009E4221D183004FF00F0C0CFA03F7BC4330
:1002200005FA03FC4CEA040491F803C0BCF1280F62
:1002300005D100F1080C08FA0CF8C2F8148091F806
:1002400003C0BCF1480F07D100F1080C4FF00108C2
:1002500008FA0CF8C2F81080401C0828CED354606D
:10026000BDE8F0810AB1016100E04161704700BF63
:10027000FEE721B1028842F48062028004E0028835
:100280004FF6FF331A400280704770B502460024D3
:10029000002500230020958A138B1B0445EA0306E2
:1002A00026F07F4404EA01068E4201D1012000E0DD
:1002B000002070BD21B1028842F00102028004E0FA
:1002C00002884FF6FE731A400280704721B10288FF
:1002D00042F48072028004E002884FF6FF631A4005
:1002E0000280704721B1028842F40072028004E06B
:1002F00002884FF6FF531A40028070472DE9F04301
:1003000085B004460D460026B1460427DFF8CC80B0
:10031000A6884FF6C0700640684600F093FBDDF8F3
:1003200008802F48B8FBF0F01FFA80F946EA09066A
:10033000A68020884FF6FE710840208000262949BB
:10034000286888420CD828684000B8FBF0F087B2D3
:10035000042F00DA04273E4309F10100208427E03E
:10036000E8884BF6FF71884206D1286800EB400010
:10037000B8FBF0F087B209E0286800EBC00101EBA0
:100380000010B8FBF0F087B247F48047C7F30B00CA
:1003900008B947F0010747F4004006434FF4967050
:1003A00009FB00F04FF47A7190FBF1F0401C2084BF
:1003B000A683208840F00100208026884FF6F53083
:1003C0000640A8886989084306432680A8892989A8
:1003D0000843208105B0BDE8F083000000127A00D8
:1003E00040420F00A08601000146088AC0B2704753
:1003F00012B141F0010102E04FF6FE731940018293
:1004000070470182704770B504463B2000F09EF8AB
:1004100005463C2000F09AF8064646EA052000B260
:1004200020803D2000F092F805463E2000F08EF836
:10043000064646EA052000B260803F2000F086F8BC
:100440000546402000F082F8064646EA052000B244
:10045000A080432000F07AF80546442000F076F8AA
:10046000064646EA052000B2E080452000F06EF81E
:100470000546462000F06AF8064646EA052000B226
:100480002081472000F062F80546482000F05EF821
:10049000064646EA052000B2608170BD10B57520A1
:1004A00000F054F810BD000000B585B001218805AA
:1004B00000F0A8FA0121082000F0B4FA4FF44060DF
:1004C000ADF810001C208DF8130003208DF81200E9
:1004D00004A91C48FFF73BFE0020ADF804004CF2D5
:1004E000503000904BF6FF70ADF806004FF480607E
:1004F000ADF80A000001ADF80C000020ADF80800CE
:1005000069461148FFF7FAFE01210F48FFF7D2FEB6
:1005100001216B2000F072F800216C2000F06EF8D1
:100520000921192000F06AF806211A2000F066F867
:1005300018211B2000F062F818211C2000F05EF842
:1005400005B000BD000C01400058004070B50446E5
:1005500001211E48FFF7BAFE1D4800F03DF80022B9
:10056000D0211A48FFF744FF1A4800F035F8214619
:100570001648FFF746FF1748801E00F02DF80121AE
:100580001248FFF7A3FE124800F026F80122D021FE
:100590000E48FFF72DFF0E48401C00F01DF800210B
:1005A0000A48FFF766FE01210848FFF79BFE08484E
:1005B0003F3000F011F80548FFF716FF054601210E
:1005C0000248FFF756FE284670BD00000058004064
:1005D000010003008200070070B504464FF47A75ED
:1005E00002E06D1E05B970BD21460348FFF74DFEC0
:1005F0000128F6D100BFF6E70058004070B5044668
:100600000D4601211148FFF761FE1148FFF7E4FF95
:100610000022D0210D48FFF7EBFE0E48FFF7DCFF6C
:1006200021460A48FFF7EDFE0A48801EFFF7D4FF77
:1006300029460648FFF7E5FE0648801CFFF7CCFF79
:1006400001210248FFF74EFE70BD00000058004037
:10065000010003008200070000BFFEE7704770B58D
:1006600000240EE00021204600F0EFF8002504E011
:10067000002000F0B6F9681CC5B2802DF8DB601CC4
:10068000C4B2082CEEDB70BD08B50121082000F0D3
:10069000C9F94FF48070ADF8000014208DF8030004
:1006A00003208DF8020069460A48FFF750FD4FF419
:1006B0000070ADF8000069460648FFF748FD0122CA
:1006C00011020448FFF7CEFD012251020148FFF755
:1006D000C9FD08BD000C014070B50546002415E0B9
:1006E0008020204100EA05024FF400710E48FFF718
:1006F000B9FD012211020C48FFF7B4FD00224FF4AE
:1007000080710948FFF7AEFD601CC4B2082CE7DB1E
:10071000012211020448FFF7A5FD00224FF4807169
:100720000148FFF79FFD70BD000C014010B501228C
:1007300051020A48FFF796FD012211020748FFF710
:1007400091FD00224FF400710448FFF78BFD002259
:100750004FF480710148FFF785FD10BD000C01408A
:1007600010B500224FF400710648FFF77BFD01220F
:1007700011020448FFF776FD012251020148FFF7FC
:1007800071FD10BD000C014070B5002406E000258D
:1007900000E06D1CB5F57A7FFBD3641CB4F57A7F5D
:1007A000F5D3FFF771FFAE2000F00BF9D52000F074
:1007B00008F9802000F005F9A82000F002F93F2098
:1007C00000F0FFF8D32000F0FCF8002000F0F9F86A
:1007D000402000F0F6F8A12000F0F3F8C82000F067
:1007E000F0F8DA2000F0EDF8122000F0EAF88120AD
:1007F00000F0E7F8CF2000F0E4F8D92000F0E1F8AD
:10080000F12000F0DEF8DB2000F0DBF8302000F013
:10081000D8F8A42000F0D5F8A62000F0D2F88D205A
:1008200000F0CFF8142000F0CCF8AF2000F0C9F8A9
:10083000FFF715FF70BD10B50246012000E05043E0
:100840000B00A1F10101FAD110BD70B505460C46AF
:1008500045F0B00000F0B5F8102141EA141000F0A6
:10086000B0F804F00F0000F0ACF870BD2DE9F041D5
:1008700005460E461746721ED206110E6A1E520615
:10088000100EFFF7E2FF002409E0A7F12001134A50
:1008900002EB0111085D00F0A4F8601CC4B2082C42
:1008A000F3DB721ED206110E6A1E012303EB420215
:1008B000D0B2FFF7CAFF00240BE0A7F12001074ADE
:1008C00002EB011204F10801505C00F08AF8601C90
:1008D000C4B2082CF1DBBDE8F08100002C0D00084B
:1008E0002DE9F04781460E4690461F4600241DE044
:1008F000381B411E1020FFF79EFFB8FBF0F000F000
:100900000F050A2D08DA05F13000C2B23019C1B264
:100910004846FFF7ABFF07E005F13700C2B23019D8
:10092000C1B24846FFF7A2FF601CC4B2BC42DFDB85
:10093000BDE8F0872DE9F0478146884615461E46FA
:10094000002D06DB2B2241464846FFF78FFF2F463E
:1009500005E02D2241464846FFF788FF6F420024FC
:1009600017E0301B411E0A20FFF765FFB7FBF0F0D0
:100970000A21B0FBF1F201FB120000F1300A08EB92
:100980000400401CC1B252464846FFF76FFF601C8E
:10099000C4B2B442E5DBBDE8F0872DE9F04107467B
:1009A0000E461546002407E02A5D3019C1B23846CC
:1009B000FFF75CFF601CC4B2285D0028F4D1BDE8DD
:1009C000F08110B50446FFF7B1FE7820FFF784FEF2
:1009D0000020FFF781FE2046FFF77EFEFFF7C0FEF6
:1009E00010BD10B50446FFF7A1FE7820FFF774FE96
:1009F0004020FFF771FE2046FFF76EFEFFF7B0FEC6
:100A000010BD704729B1064AD2690243044BDA612E
:100A100004E0034AD2698243014BDA617047000067
:100A20000010024029B1064A92690243044B9A61C0
:100A300004E0034A92698243014B9A6170470000C7
:100A40000010024030B500210022002400232D4D6B
:100A50006D6805F00C0121B1042905D0082923D1C6
:100A600005E0294D056022E0274D05601FE0254D7A
:100A70006D6805F47012234D6D6805F4803402250D
:100A800005EB92421CB9214D554305600BE01D4D0D
:100A90006D6805F400351DB11C4D5543056002E03D
:100AA000194D5543056002E0174D056000BF00BFBA
:100AB000144D6D6805F0F0010909154D6B5C056872
:100AC000DD4045600F4D6D6805F4E061090A104D89
:100AD0006B5C4568DD4085600A4D6D6805F46051CA
:100AE000C90A0B4D6B5C4568DD40C560054D6D68FE
:100AF00005F44041890B074D6B5CC568B5FBF3F508
:100B0000056130BD0010024000127A0000093D006E
:100B10000000002010000020704710B500F002F81F
:100B200010BD00000CB50020019000903348006813
:100B300040F480303149086000BF3048006800F45C
:100B4000003000900198401C0190009818B901985D
:100B5000B0F5A06FF1D12948006800F4003010B161
:100B60000120009001E0002000900098012843D16E
:100B70002348006840F010002149086008460068DA
:100B800020F0030008600846006840F0020008609A
:100B90001A48406819494860084640684860084655
:100BA000406840F4806048600846406820F47C104B
:100BB00048600846406840F4E8104860084600680D
:100BC00040F08070086000BF0C48006800F00070C2
:100BD0000028F9D00948406820F003000749486020
:100BE0000846406840F00200486000BF0348406883
:100BF00000F00C000828F9D10CBD000000100240E4
:100C0000002002407047000010B51348006840F013
:100C100001001149086008464068104908400E4923
:100C20004860084600680E4908400B4908600846BD
:100C3000006820F4802008600846406820F4FE0028
:100C400048604FF41F008860FFF767FF4FF00060B7
:100C50000449086010BD0000001002400000FFF8C9
:100C6000FFFFF6FE08ED00E000BFFEE702E008C867
:100C7000121F08C1002AFAD170477047002001E016
:100C800001C1121F002AFBD170470000FFF77CFD55
:100C9000FFF70AFC22A201210846FFF77EFEFFF7BC
:100CA000FDFB204908700223084602780421012038
:100CB000FFF716FE32E01C48FFF7A5FB1A48B0F913
:100CC0000020052301210220FFF734FE1648B0F969
:100CD0000220052301210320FFF72CFE1248B0F962
:100CE0000420052301210420FFF724FE0E48B0F95B
:100CF0000620052308210220FFF71CFE0A48B0F950
:100D00000820052308210320FFF714FE0648B0F948
:100D10000A20052308210420FFF70CFECBE7000082
:100D200049443A0014000020180000200000000090
:100D3000000000000000000000000000000000F8BB
:100D400000000000000000333000000000100C061E
:100D5000100C0600000000000000000040C07840B9
:100D6000C0784000043F04043F040400007088FC85
:100D700008300000001820FF211E0000F008F000DD
:100D8000E018000000211C031E211E0000F008884E
:100D9000700000001E2123241927211010160E00B8
:100DA000000000000000000000000000000000E063
:100DB0001804020000000007182040000002041878
:100DC000E00000000040201807000000404080F0D4
:100DD000804040000202010F01020200000000F00A
:100DE000000000000101011F0101010000000000DE
:100DF0000000000080B07000000000000000000053
:100E000000000000000101010101010100000000DB
:100E10000000000000303000000000000000000072
:100E200080601804006018060100000000E010084F
:100E30000810E000000F102020100F00001010F824
:100E4000000000000020203F202000000070080863
:100E500008887000003028242221300000300888E3
:100E6000884830000018202020110E000000C0200B
:100E700010F8000000070424243F240000F808882C
:100E8000880808000019212020110E0000E01088B9
:100E900088180000000F112020110E0000380808EB
:100EA000C83808000000003F0000000000708808FB
:100EB00008887000001C222121221C0000E010087C
:100EC0000810E0000000312222110F00000000C0D5
:100ED000C000000000000030300000000000008072
:100EE0000000000000008060000000000000804062
:100EF000201008000001020408102000404040407B
:100F000040404000040404040404040000081020CD
:100F10004080000000201008040201000070480812
:100F20000808F0000000003036010000C030C8287A
:100F3000E810E0000718272423140B000000C03835
:100F4000E0000000203C23020227382008F88888AF
:100F500088700000203F202020110E00C0300808BB
:100F600008083800071820202010080008F8080892
:100F70000810E000203F202020100F0008F888888B
:100F8000E8081000203F20202320180008F8888857
:100F9000E8081000203F200003000000C0300808CF
:100FA0000838000007182020221E020008F8080058
:100FB0000008F808203F210101213F20000808F81F
:100FC000080800000020203F202000000000080842
:100FD000F8080800C08080807F00000008F888C002
:100FE00028180800203F20012638200008F80800B3
:100FF00000000000203F20202020300008F8F800EA
:10100000F8F80800203F003F003F200008F830C0FB
:101010000008F808203F200007183F00E0100808EB
:101020000810E0000F10202020100F0008F808081A
:101030000808F000203F210101010000E01008082D
:101040000810E0000F18242438504F0008F8888852
:1010500088887000203F2000030C30200070880832
:10106000080838000038202121221C00180808F840
:10107000080818000000203F2000000008F80800C1
:101080000008F808001F202020201F000878880092
:1010900000C83808000007380E010000F80800F802
:1010A0000008F800033C0700073C030008186880AC
:1010B0008068180820302C03032C30200838C80022
:1010C000C83808000000203F200000001008080871
:1010D000C83808002038262120201800000000FE13
:1010E000020202000000007F40404000000C30C0BF
:1010F00000000000000000010638C00000020202EB
:10110000FE000000004040407F000000000004029C
:1011100002020400000000000000000000000000C7
:1011200000000000808080808080808000020204B7
:1011300000000000000000000000000000008080AF
:10114000808000000019242222223F2008F800801D
:1011500080000000003F112020110E0000000080E0
:1011600080800000000E112020201100000000806F
:101170008088F800000E112020103F2000008080A1
:1011800080800000001F222222221300008080F0B5
:10119000888888180020203F2020000000008080E0
:1011A00080808000006B94949493600008F8008025
:1011B00080800000203F210000203F200080989880
:1011C000000000000020203F2020000000000080E0
:1011D0009898000000C08080807F000008F8000020
:1011E00080808000203F24022D302000000808F875
:1011F000000000000020203F202000008080808030
:1012000080808000203F20003F20003F80800080C1
:1012100080800000203F210000203F2000008080CF
:1012200080800000001F202020201F008080008080
:101230008000000080FFA12020110E00000000802F
:1012400080808000000E112020A0FF808080800020
:101250008080800020203F2120000100000080804D
:10126000808080000033242424241900008080E042
:10127000808000000000001F20200000808000000F
:1012800000808000001F202020103F2080808000F0
:101290000080808000010E30080601008080008000
:1012A000008080800F300C030C300F000080800025
:1012B000808080000020312E0E3120008080800050
:1012C0000080808080818E70180601000080808000
:1012D000808080000021302C22213000000000009E
:1012E000807C020200000000003F4040000000003F
:1012F000FF00000000000000FF0000000002027C70
:10130000800000000040403F000000000006010196
:101310000202040400000000000000003C1300086A
:1013200000000020180000006C0C00085413000896
:1013300018000020100400007C0C000800000000D1
:101340000102030401020304060708090204060857
:041350000000000099
:04000005080000ED02
:00000001FF
